:020000040800F2
:100000000050002095060008550600085906000813
:100010005D06000861060008650600080000000093
:100020000000000000000000000000006906000859
:100030006D06000800000000710600087506000843
:10004000DD060008DD060008DD060008DD06000804
:10005000DD060008DD060008DD060008DD060008F4
:10006000DD060008DD060008DD060008DD060008E4
:10007000DD06000885060008DD060008DD0600082C
:10008000DD060008DD060008DD060008DD060008C4
:10009000DD060008DD060008DD060008DD060008B4
:1000A000DD060008DD060008DD060008DD060008A4
:1000B000DD060008DD060008DD060008DD06000894
:1000C000DD060008DD060008DD060008DD06000884
:1000D000DD060008DD060008DD060008DD06000874
:1000E000DD060008DD060008DD060008000000004F
:1000F0000000000000000000000000000000000000
:0C01000000000000000000005FF808F1A3
:1001100010B5054C237833B9044B13B10448AFF341
:1001200000800123237010BDA40000200000000007
:10013000C416000808B5034B1BB103490348AFF3CD
:10014000008008BD00000000A8000020C4160008C0
:10015000224A08B5136823F0070343F00203136033
:10016000136803F00703022BFAD11D490B6843F40F
:1001700080330B600B689A03FCD54B68184A23F454
:100180007C1343F4E8134B600B6843F080730B60FF
:1001900013689B01FCD55368114923F0F0035360A9
:1001A000536823F4E06343F480635360536823F49B
:1001B00060535360536823F0030343F0020353601A
:1001C0004B6803F00C03082BFAD1064801F0E0F964
:1001D000BDE80840034801F0FFB900BF002002401D
:1001E0000010024000A24A044FF6FF00C64B2DE962
:1001F000F04F9969ADF20C7D41F001019961996967
:10020000C24A01F0010113911399D969BF4C41F021
:100210008051D961DB6903F080531293129BD1683E
:10022000BB4B01400B43D360D368BA49C3F30223ED
:10023000C3F107001A1D042828BF0420062A88BF1E
:10024000DA1E4FF0FF3303FA00F398BF0022DB43BE
:1002500093401B01DBB284F823304B6823F0E0634A
:100260004B604B6843F000734B60FFF771FFAA4B84
:10027000AA4A1B68A2FB03239B09013BB3F1807FC1
:1002800009D24FF0E022F02500200721536184F8C5
:100290002350906111610023DFF86CB22F93DBF8DB
:1002A00018301C2243F02003CBF81830DBF818304C
:1002B0009B4803F020031893189BDBF818300325A4
:1002C00043F00403CBF81830DBF818302CA903F006
:1002D00004031993199B0123426141F61C42309398
:1002E000012300248246CDE92C232E9500F07CFFCB
:1002F0004FF000034FF40051DBF81420894842F01E
:100300000102CBF81420DBF81420DFF81C9202F075
:1003100001021192119A7D4A2646D26880F80D3367
:100320002822016021462CA801F0A0F9CDE925443E
:10033000DBF81820092342F48052CBF81820DBF8B0
:100340001820504602F480521692169ADBF81820B4
:1003500022A942F00402CBF81820DBF818202495DB
:1003600002F004021792179A4AF2A002CDE9222362
:1003700000F03AFF6D4A0223116B4FF4827021F4B2
:10038000804121F0100141F010011163116B4FF415
:10039000007E21F440511163116B4FF0080C21F0E5
:1003A00020011163116B254621F040011163116B8F
:1003B0005F4F41F080011163116B21F4407141F4F2
:1003C00080711163116B21F4406141F4806111630C
:1003D0000022CDE92F340A232D902CA95548CDE9D0
:1003E00031ECCDE934232C942E94339400F08CFF1F
:1003F000202221462CA8CDE91D44CDE91F4421949B
:1004000001F034F942F20F701121CDE92244CDE917
:1004100024442694DBF81C20474B42F00202CBF820
:100420001C20DBF81C20ADF8740002F00202184614
:100430001F9114921DA9149A00F096FF4FF0804C62
:100440003D4B60201A680DF1B00E22F080021A6058
:10045000DCF81824012142F00802CCF81824092203
:100460002C90CDE92F2418467246CDE92D4400F09A
:10047000B7FF4FF08040D0F818242F4B22F0040231
:10048000C0F818245A6844F2400122F070025A6001
:100490009A68504622F080029A60DBF818300922F0
:1004A00043F00403CBF81830DBF818304FF0020BA0
:1004B00003F00403CDE92212159322A9CDE924B457
:1004C000159B00F091FE40F60803269340F204438A
:1004D000289341F210030DF1740ECDE924BACDF842
:1004E0009CA0CDF8A4A0F246DFF850C02A9304A344
:1004F000D3E90023CDE9222322E000BFAFF300803F
:1005000000300140000002400010024000ED00E019
:100510000003FA050000014000000020D34D6210E6
:100520000008014000E100E000FFFF000000024081
:10053000C00000200030014000040040DC1600082C
:10054000BCE80F00AEE80F00DCF800C00DF12C0B8A
:10055000CEF800C0BAE80F00ABE80F00CBF800C03F
:100560004FF0020B344BCDF828B00893334BDFF833
:10057000D0A00793334B2CA9069322AB0993324B9F
:1005800005934FF4A0730193F023CDE90344009346
:1005900002941A46DAF8000000F018FA8346CAF806
:1005A000000000F007FB294B58460093FF2322462A
:1005B00002932146264B0394CDF8049000F0A6FD4B
:1005C0004FF4FA6000F0F6FFD7F800A03B684FF058
:1005D0000008A3EB0A03B3F57A7F14D2310241EA93
:1005E00005412143584600F015FC3B680135A3EB5B
:1005F0000A0302360434B3F57A7FEDB2F6B2E4B200
:1006000008F10108EAD31AA90A22404601F02CF8A1
:100610000022FF21DFF834C0584602911AAB114680
:100620000392CDF80490CDF800C000F06FFD4FF4B8
:100630007A7000F0BFFFC7E7E1110008D911000888
:10064000C400002095110008791100080400002062
:10065000F0160008FEE700BFFEE700BFFEE700BFA0
:10066000FEE700BFFEE700BF704700BF704700BF56
:10067000704700BF024A136801331360704700BF20
:10068000C00000200221014800F02AB8000002400A
:10069000704700BF0C480D490D4A002302E0D458B2
:1006A000C4500433C4188C42F9D30A4A0A4C0023BC
:1006B00001E013600432A242FBD3FFF7E9FF00F030
:1006C000DDFFFFF791FD704700000020A40000202F
:1006D00098220008A4000020C8000020FEE70000C7
:1006E0000122314B10B44FEA810C446802FA0CF23B
:1006F0001B682243426033B19A6A904205D0D3F816
:100700005036002BF8D110BC7047DA6A9142F6D10E
:100710001A6C1AB1D4685A6C1442F0D1234A12F8F8
:1007200001C050F80C2000EB0C0122F0010240F84F
:100730000C2050F80C20D20703D500BF0A68D4075C
:10074000FBD4D3F84026CAB95A6A516821F0020195
:1007500051609168080604D500BF5A6A916809067D
:10076000FAD493F8451619B9196C09B15B6C0B6191
:10077000136810BC23F0400313607047B2F5803F4C
:100780000BD24A60002250F80C1010BC41F001015D
:10079000C3F8402640F80C1070474FF6FF74A2F5DE
:1007A0007F42FF3A4C60EEE7C400002000170008CB
:1007B000F8B5456A04462B685B0621D494F84536A3
:1007C00023B9236C13B1626C12041A612B6823F4F1
:1007D0002C432B602B6843F040032B600B78012BDC
:1007E0004CD0022B6BD08BB194F845361BB9236CDF
:1007F0000BB1626C1A612B6823F040032B60F8BDCB
:1008000000BF636A1B685F06D8D5F9E7E26B636ACD
:10081000A66B48781204326118739A68960707D459
:1008200000BF9A689007FBD59A68120603D500BFEF
:100830009A681206FBD48E780331002ECED008467B
:1008400001EB060C636A10F8012BD4E90EE7CEF831
:1008500010701A739A68970707D400BF9A689207B6
:10086000FBD59A68170603D500BF9A681706FBD414
:100870006045E7D131440B78012BB2D14E7802317B
:10088000002EABD0084601EB060C636A10F8012B72
:10089000D4E90E7EC7F810E01A739A68920707D45D
:1008A00000BF9A689707FBD59A68120603D500BF68
:1008B0009A681206FBD46045E7D13144DBE74878FB
:1008C0008E1C00F077FE314688E700BF38B504463D
:1008D0001D464389D4F818C01944838988B21A4444
:1008E00093B219460246E04701462046FFF760FFF3
:1008F000354994F84800C5F3C40201EA15216B0993
:100900000A4303F4FC631A43012892B201D152BA9C
:1009100092B2636A19684D063DD494F8451621B920
:10092000256C15B1616C0904296194F8461611B95A
:10093000D4E90E150D611968022821F42C411960C3
:1009400031D01868D1B240F040001860197399682E
:10095000890703D400BF99688807FBD5C2F3072233
:100960001A739A68910707D400BF9A689207FBD55B
:100970009A68100603D500BF9A681006FBD494F855
:1009800045261AB9226C0AB1616C11611A6822F00D
:1009900040021A6038BD00BF616A09684906FAD48E
:1009A00094F84800B9E7196841F4006119601968C2
:1009B00041F040011960DA609A689507DCD400BF05
:1009C0009A689507FBD5D7E700F8FFFF2DE9F04FB0
:1009D00083B00C46CDE90023BDF83090BDF83480DB
:1009E000BDF93860BDF93C709DF840B09DF858A045
:1009F000002900F0B98040F25462002105462046EB
:100A000000F034FEDDF854C084F848A004F1240E50
:100A1000BCE80F00AEE80F00BCE80F00AEE80F0026
:100A2000DCF80030CEF80030A36A002B35D0E26A43
:100A30005F49895C5A58581822F001025A505A5896
:100A4000D20705D500BF0268D207FBD494F848A0AE
:100A5000BAF1010F0BD0BAF1020F0ED15A5822F49D
:100A600070625A505A5842F4A0625A5005E05A58DF
:100A700022F470625A505A585A505A5822F00C02B6
:100A80005A505A5842F002025A505A5822F0400224
:100A90005A505A5842F080025A50019A009913460F
:100AA0008A4238BF0B468A4228BF0A46BBF1000F74
:100AB00045D14A456681A781A280E380A4F80090D1
:100AC000A4F8028054D8984552D3119B002B4FD0E4
:100AD000129B002B4CD04FF0000C119B04F14C06E4
:100AE0006361129B17AFA361139B84F808B0E361A5
:100AF000149B04F1640E23620FCF0FC63B68336072
:100B0000C4F860E084F844C6C4F850C6C4F84CC6C3
:100B100055B3D5F8503653B101221D46D3F850369F
:100B2000511C1046CAB2002BF7D184F84406204667
:100B3000C4F84C56C5F8504603B0BDE8F08FBBF181
:100B4000020F1FD0BBF1010F25D0BBF1030F0FD156
:100B500094464846A8EB0701C91A37461A46C146CB
:100B6000634680460EB2A4E7204603B0BDE8F08F8E
:100B700040F254620021204600F078FD002003B0CE
:100B8000BDE8F08FA9EB0606A8EB0707B61AFF1A17
:100B900036B23FB28DE7CC461046A9EB0601891A62
:100BA0003E461A46C1460346E0460FB281E700BF03
:100BB00000170008036B10B504465BB1426B1920A7
:100BC00012041A6100F0F6FCD4E90C3219201A6103
:100BD00000F0F0FC6369207A984701462046FFF751
:100BE000E7FD94F85C10E26C64290B4628BF64238F
:100BF00084F85C3002B3D16A164801FB03F3A0FB12
:100C00000303216D5B09B1F5807F21D00FD8012945
:100C100019D0102908BF93631368DB0706D4136A41
:100C200019431162136843F00103136010BDB1F55D
:100C3000805FF1D11364EFE7636D002BF6D0A26DF6
:100C400019B11A6110BD5363E6E712041A61F9E79E
:100C5000D363E1E71F85EB51F8B599428E469C4678
:100C60000446BDF81870079D01D9E6468C46BA4285
:100C700002D913463A461F46A18871457ED9E088BD
:100C800090427BD961459CBF01F1FF311FFA81FC85
:100C9000B8429CBF00F1FF3087B2A1896089BE1ABB
:100CA0007B1811440CEB00027044ACEB0E0CA769EE
:100CB0009BB289B292B2013680B20CFB0666B8478D
:100CC00001462046FFF774FD94F8457627B9226C5B
:100CD00012B1636C1B04136194F8463613B9D4E95E
:100CE0000E321A61494BC5F3C40003EA15231843B9
:100CF0006D0994F8483005F4FC652843012B80B257
:100D000060D0626AA4F848061168022B21F42C41D5
:100D10001160136833D143F4006313601368A56A4C
:100D200043F040031360002D65D00123E16A686839
:100D30008F00BB4003436B60354B0C32595C52F85B
:100D4000083CB6F5803F43F0020342F8083C05EB4F
:100D500001039A6004F5C962DA606A5822F0400221
:100D60006A506A5822F080026A503DD200215E60CB
:100D70001A68C4F8401642F001021A60F8BDA56A6C
:100D800043F040031360002DCFD1C5B2711E000A9D
:100D90005EB1157393689F07FCD5107393689E0727
:100DA000FCD50139F5D294F8457693681B06FCD43E
:100DB0001FB9236C0BB1616C1961136823F04003F8
:100DC0001360F8BDD4E90925136840BA23F42C4315
:100DD000A4F848061360136880B243F04003136020
:100DE000002DD2D07600A0E74FF6FF72A6F57F4126
:100DF000FF395A60BCE7711E002ED6D0D0609368D0
:100E00009B07FCD50139F9D2CFE700BF00F8FFFFFF
:100E100000170008002210B5C4888388013C82B006
:100E2000A4B2013B0191009411469BB2FFF714FF5D
:100E300002B010BD2DE9F04F1D46B34C87B0DDE97F
:100E4000109304EA1324C3F3C40848EA04080646CE
:100E50005C0990F8480004F4FC6448EA040801289E
:100E600093460391129A29469DF84CC0D9F8044044
:100E70001FFA88F803D198FA98F81FFA88F8A24D5B
:100E8000C2F3C40705EA122552092F4302F4FC629B
:100E900017430128BFB201D17FBABFB299F8082029
:100EA0008A4204D899F80900884280F00281002221
:100EB00099F80000411EC9100291013104290191E5
:100EC00000F3A780012501FB02F299F8011001FB54
:100ED000024A019A746AD200013A9540BCF1000FAF
:100EE00012D0002900F095804FF0000811930346BE
:100EF000304646460299032900F29080DFE811F05F
:100F0000C600D600C9008C00B289DDF80CE00BF1F8
:100F1000FF33B6F80AC013445A440B4491B20EF1A1
:100F2000FF32624402440EEB0C0092B2D6F818C0B5
:100F30009BB280B2E04701463046FFF739FC326C85
:100F400012B1736C1B041361D6E90E311961236869
:100F500023F040032360236823F42C43236096F896
:100F60004830022B00F0A880236843F04003236040
:100F700099F80130002B3FD0002099F800C0DDF82F
:100F800004E0BEF1010F00F0AD80BEF1020F00F0F1
:100F9000AC80BEF1030F00F0AB80DAF80010F24431
:100FA000BCF1000F24D0002201FA02F32B4214BF3F
:100FB000C446BC46A3689B07FCD596F84830022B74
:100FC0007FD1C4F80CC099F800C0013294450DDD02
:100FD00001FA02F32B4214BFC346BB46A3689B072A
:100FE000FCD501329445C4F80CB0F1DC99F801301D
:100FF00001308342C5DC326CA3689907FCD5A36835
:101000001B06FCD4236823F0400323600AB1736CF1
:10101000136107B0BDE8F08FDAF80080019A9244BE
:10102000002BF6D00027039C0FFA8BF203E001346B
:10103000BB42A4B220DD08FA07F1294207F10107FB
:10104000F5D0B0F804C021B28C454BEA040EEEDDB9
:10105000B0F806C09445EADD1EF4004FE7D1119BBD
:10106000CDE90402FFF732FCDDE9040299F8003013
:101070000134BB42A4B2DEDC99F80120013696426D
:10108000C7DA0BF1010B1FFA8BFB33E79AF80080EC
:10109000C4E79AF802809AF801204FEA084848EA23
:1010A00002289AF8002048EA0208B7E7BAF8008058
:1010B000B4E78A1AD2B2FBE6236843F400632360E4
:1010C00052E75FFA8CF32373CCF3072CA3689B07DA
:1010D000FCD584F80CC099F800C0013294453FF764
:1010E00063AF83E79AF8001059E7BAF8001056E7A3
:1010F0009AF802109AF80120090441EA02219AF8AC
:10110000002011434BE700BF00F8FFFF2DE9F04F2F
:101110001F461B7885B08346DDE90E680C461546F0
:10112000DDF840909DF844A0FBB13178BBF8042075
:101130002144914209DD7278BBF806101544ADB226
:101140002A448A424FF000040FDC21462A465846C2
:10115000CDE9029ACDE90068FFF76CFE317817F807
:10116000013F0C44A4B2002BE0D1ABF80E40ABF829
:10117000105005B0BDE8F08F0138C0B202288EBF14
:101180000023024B1B5C0248C375704768220008AD
:101190001000002030B54FF0000E0446F446250A3A
:1011A00065F3070E64F30F2E0C0A64F3070C61F36A
:1011B0000F2C110A61F3174E62F31F6E1A0A0548CD
:1011C00062F3174C63F31F6CC0F803E0C0F80AC069
:1011D00030BD00BF80000020004870479400002010
:1011E000004870479C0000200B68C3F30F2C9CFA4A
:1011F000ACF2B2FA82F23CFA02F300F083802DE9FD
:10120000F04F4FF0010E0F2403260425E24666E05E
:1012100040F201139340D1F80480B8F1080F0ED1C9
:10122000C7684FEA132C9CFAACF9B9FA89F927EA96
:101230000C0C0F6907FA09F74CEA0707C7604FEA79
:10124000136C93FAA3F7B7FA87F793FAA3F9B9FAED
:1012500089F950F80CB0BF0004FA07F74FEA890982
:1012600008FA09F82BEA070747EA080740F80C7064
:10127000D1F8048028F00808B8F1010F2BD193FAB7
:10128000A3F9B9FA89F993FAA3F8B8FA88F84FEAFA
:10129000890906FA09F927EA09098F684FEA8808D7
:1012A00007FA08F749EA070740F80C7093FAA3F821
:1012B000B8FA88F893FAA3F3B3FA83F34FEA8808ED
:1012C00005FA08F827EA0808CF689B009F4048EA1B
:1012D000070740F80C7001323AFA02F30FD00EFA09
:1012E00002F313EA0A0FF6D0072A91D94FF001173B
:1012F000A2F1080307FA03F343F080638BE70020B1
:10130000BDE8F08F002070470246006810F04000F2
:1013100024D1136830B423F47F4CD1E900352B433A
:101320008D684C692B43CD682CF0BF0C2B430D69A5
:101330002B438D6923432B43CD692B430D6A2B43EC
:1013400043EA0C0313605368B5F5005F23F0040310
:1013500043EA1443536003D030BC70470120704708
:101360008B8C30BC136170471C4A30B490420368C8
:1013700024D0B0F1804F13D0A2F5943290420FD018
:1013800002F5806290420BD08C680A880360C462C8
:101390008262436930BC43F001034361002070471F
:1013A0004A6823F07003134323F440730A88D1E999
:1013B00002452B430360C4628262EAE74C6823F073
:1013C0007003CA68234323F44073134303608A689D
:1013D0000B88C26283620B690363DAE7002C014069
:1013E000B1F5807F034630B46CD025D801294BD0AD
:1013F000102946D1016A156921F010010162016AC4
:10140000406821F020019C6941EA0511156824F427
:10141000E64444EA0524556821F0100141EA05112B
:101420005A4DAB4200F09780D26858609C61002012
:1014300030BC9A6319627047B1F5805F21D1016AAF
:10144000156921F480510162016A406821F400515C
:10145000DC6941EA0531156824F4E64444EA0524D0
:10146000556821F4805141EA0531484DAB4200F006
:101470008780D2685860DC61002030BC1A64196231
:101480007047012030BC7047016A156921F00101E5
:101490000162016A406821F002019C6929431568D4
:1014A00024F073042C43556821F001012943374D82
:1014B000AB423CD0D26858609C61002030BC5A637B
:1014C00019627047016A156921F480710162016A2D
:1014D000406821F40071DC6941EA0521156824F0B7
:1014E00073042C43556821F4807141EA0521274D8E
:1014F000AB4207D0D2685860DC61002030BCDA63B0
:1015000019627047556921F4006141EA85219569A6
:1015100020F4805040EA0510956821F4806141EA8A
:101520008521D56920F4005040EA4510E2E755696D
:1015300021F0080141EA8501956920F48070284373
:10154000956821F0040141EA8501D56920F4007015
:1015500040EA4500AEE7556921F0800141EA851176
:10156000956920F4806040EA8500956821F040018B
:1015700041EA8511D56920F4006040EAC50053E7CF
:10158000956920F4804040EA851072E7002C014004
:1015900030B44FF0E02200250524054BA3FB0013D7
:1015A0009B09013B53619561146130BC704700BFDA
:1015B000D34D62104FF0E023421C4FF0E0221B6934
:1015C00082B00193019B18BF01301369DB03FCD586
:1015D0000138FAD102B07047014B1860704700BF64
:1015E00000000020F0B58BB005460B466E461D4C42
:1015F00004F1200C374620686168083403C764454D
:101600003E46F7D1217920683971911E2229386030
:101610004FF0000104D919700B4618460BB0F0BD0D
:10162000581E8446B5FBF2F702FB175628366E4467
:1016300016F8286C0C460CF8016F2E46B2423D4657
:1016400001F10101EED900225A541919A51AAA4232
:10165000E3DA10F8015F0E780132067001F80159E3
:10166000F4E700BF6B220008FFF7BCBF034602444B
:10167000934200D1704703F8011BF9E770B50026CB
:101680000C4D0D4C641BA410A64209D100F01AF8B1
:1016900000260A4D0A4C641BA410A64205D170BD59
:1016A00055F8043B98470136EEE755F8043B984758
:1016B0000136F2E7902200089022000890220008EC
:1016C00094220008F8B500BFF8BC08BC9E467047DD
:0C16D000F8B500BFF8BC08BC9E4670478F
:1016DC0000040040010000000000000000000000B9
:1016EC005000000048656C6C6F2C20776F726C6436
:1016FC0021000000081C3044586C800000000000E1
:10170C0000000000000000000000000808080808A5
:10171C000808000800000000141414000000000069
:10172C0000000000000A0A3F1414147E2828000050
:10173C000000081C22201C02221C080000000020B3
:10174C00512204081022450200000000182020102D
:10175C0030494A443B000000000808080000000023
:10176C0000000000000004080810101010100808F9
:10177C000400001008080404040404080810000005
:10178C000000361C7F1C3600000000000000000822
:10179C0008087F0808080000000000000000000096
:1017AC000000081000000000000000007F00000096
:1017BC000000000000000000000000000800000015
:1017CC0000000102040810204000000000001C2250
:1017DC002222222222221C000000000838080808BD
:1017EC000808083E000000001C2202020408102019
:1017FC003E000000001C2202020C0202221C00000F
:10180C000000040C0C1414243E040E000000003ED6
:10181C002020203C0202221C000000000C10202082
:10182C003C2222221C000000003E22020404080874
:10183C001010000000001C2222221C2222221C005C
:10184C000000001C2222221E0202041800000000CC
:10185C00000000080000000008000000000000006C
:10186C000800000000081000000000000408102010
:10187C00100804000000000000003E003E000000C4
:10188C000000000000001008040204081000000012
:10189C00001C2202020408080008000000001E219F
:1018AC004D5555554E201C00000000180808141406
:1018BC00223E2277000000007E2121213E212121A1
:1018CC007E000000001E214040404040211E0000D0
:1018DC0000007C222121212121227C000000007F9C
:1018EC002120243C2420217F000000007F21202483
:1018FC003C24202078000000001E2140404047413D
:10190C00211E00000000772222223E222222770094
:10191C000000003E080808080808083E0000000007
:10192C001E04040404044444380000000073222400
:10193C00242838242273000000007C101010101092
:10194C0010117F00000000632236362A2A222277EB
:10195C0000000000672232322A2626227200000084
:10196C00001C224141414141221C000000007E210B
:10197C0021213E20202078000000001C2241414102
:10198C004141221C1B0000007E2121213E242422E7
:10199C0073000000003E4140403E0101413E00000A
:1019AC0000007F490808080808081C0000000077A0
:1019BC00222222222222221C000000007722222234
:1019CC00141414080800000000772222222A2A2A64
:1019DC001414000000007722141408141422770049
:1019EC0000000077222214140808081C00000000D4
:1019FC007F420404081010217F000000001C10100E
:101A0C00101010101010101C0000004020100804C2
:101A1C0002010000000000001C040404040404047F
:101A2C00041C00081422000000000000000000004C
:101A3C000000000000000000000000FF0000100883
:101A4C0000000000000000000000000000003C024C
:101A5C003E42423D000000006020203E2121212119
:101A6C007E000000000000003E414040413E00006E
:101A7C0000000602023E424242423F0000000000CB
:101A8C0000003E417F40413E000000000C10103C25
:101A9C00101010103C000000000000003F424242B9
:101AAC003E02023C00006020202C322222227700D1
:101ABC0000000008000038080808083E000000007C
:101ACC000400003C040404040404380000602020DA
:101ADC002624283824630000000018080808080889
:101AEC0008083E00000000000000742A2A2A2A6B15
:101AFC00000000000000006C32222222770000005F
:101B0C00000000003E414141413E00000000000049
:101B1C00007E212121213E207000000000003F4268
:101B2C004242423E020700000000007619101010DD
:101B3C007C000000000000003E413806413E0000E1
:101B4C0000000010103C101010120C0000000000DF
:101B5C00000066222222261B0000000000000077F5
:101B6C0022221414080000000000000077222A2A08
:101B7C0014140000000000000077221C1C227700C7
:101B8C000000000000007722221414080830000026
:101B9C000000007E440810227E00000000060808A9
:101BAC00080830080808080600080808080808088B
:101BBC000808080808000030080808080608080883
:101BCC000830000000314946000000000000000011
:101BDC0000001C1C1C1C1C1C1C1C1C000000FE926D
:101BEC0010101E11111516000004083F11101010D2
:101BFC001010103800000000000000000000000071
:101C0C00081000000408003E1210101010380000DC
:101C1C00000000000000000000002448000000004C
:101C2C0000000000000000540000000010107C10A8
:101C3C0010101010100000000010107C1010107C00
:101C4C00101000000000001C1C1C1C1C1C1C1C1C6C
:101C5C0000000021522408102052AD120000000098
:101C6C00F84848484E4949C9CE0000000000000021
:101C7C0000040810080400000000EC4848487E49A5
:101C8C004949EE00000408732224243824242273CA
:101C9C0000000000FE9210101E11111139000000FE
:101CAC000077222222222222227F08080000207C98
:101CBC00202C3222222272020600001008000000A2
:101CCC0000000000000000000810000000000000F0
:101CDC00000000000048240000000000000000008C
:101CEC0000001224000000000000000000000000B2
:101CFC000000183C1800000000000000000000006C
:101D0C0070000000000000000000000000FC00005B
:101D1C0000000000000000000000000000000000B7
:101D2C00000000FB55510000000000000000000006
:101D3C0000000018282E4949CE00000000000000C9
:101D4C0000201008102000000000000000CC487E8D
:101D5C004949EE000000000408006624382424637E
:101D6C0000000000207C202C322222227700000070
:101D7C000000000066222222223E0808000000001B
:101D8C0000000000000000000036087F2222222202
:101D9C001E02221C000000000036087F2222221E98
:101DAC0002221C00001E04040404044444380000F5
:101DBC000000413E2222223E410000000001033F70
:101DCC00101010101010103800000000080808083F
:101DDC000800080808080800001E22504824120AAF
:101DEC004478000022007F2120243C2420217F0005
:101DFC000000001C224D51514D221C00000000001F
:101E0C001E2140447C4440211E00000000000000C4
:101E1C00001122442211000000000000003E0200CC
:101E2C000000000000000000000000007F00000027
:101E3C00000000001C2259555955221C000000229C
:101E4C00003E080808080808083E000000000814B6
:101E5C0008000000000000000000000808087F08CF
:101E6C000808007F000000003E0808080808080861
:101E7C003E0000000008000038080808083E00007A
:101E8C00000000021E10101010103800000000009E
:101E9C00000022222222223C204000003F7A7A7A43
:101EAC003A0A0A0A1B0000000000000000000800AB
:101EBC000000000000002200003E417F40413E0037
:101ECC00000000C6446777544F4C44C60000000025
:101EDC000000003E417840413E0000000000000040
:101EEC00004422112244000000000400003C0404C1
:101EFC00040404043800003E4140403E0101413ED0
:101F0C00000000000000003E413806413E00000089
:101F1C000024000038080808083E000000000206F3
:101F2C000A0A121E222277000000007F2120203E88
:101F3C002121217E000000007E2121213E21212132
:101F4C007E000000003F111010101010103800001F
:101F5C0000007F222222222222227F414100007F88
:101F6C002120243C2420217F00000000492A2A2A19
:101F7C001C2A2A2A49000000003E4101011E0101D1
:101F8C00413E00000000632226262A3232227700CE
:101F9C0000000C6B3226262A323222770000000019
:101FAC00732224243824242273000000003F1212D0
:101FBC0012121212527700000000632236362A2ABF
:101FCC0022227700000000772222223E2222227752
:101FDC00000000001C224141414141221C00000034
:101FEC00007F2222222222222277000000007E2162
:101FFC0021213E20202078000000001E214040407E
:10200C004040211E000000007F490808080808080D
:10201C001C0000000077222222221E02221C00003B
:10202C0000001C083E4949493E081C00000000778E
:10203C0022141408141422770000000077222222A4
:10204C00222222223F0101000077222222221E029C
:10205C000207000000006B2A2A2A2A2A2A2A3E009C
:10206C000000006B2A2A2A2A2A2A2A3F0101000092
:10207C007850501E111111113E00000000E7424231
:10208C00724A4A4A4AF7000000007020203E212183
:10209C0021217E000000003C4201111F1101423C35
:1020AC000000000066292929392929296600000029
:1020BC00003F4242423E1212226F0000000000001C
:1020CC00003C023E42423D00000000007F40203EAA
:1020DC004141413E00000000003844447C424242F1
:1020EC003C000000000000003C420C30423C000070
:1020FC0000000000003F4242423E02221C00000051
:10210C0000003E417F40413E0000000000000049BD
:10211C002A1C2A2A49000000000000003E410E0241
:10212C00413E0000000000000066222222261B0017
:10213C0000000004080066222222261B000000007A
:10214C000000006624382424630000000000000016
:10215C00070A0A1212630000000000000022363643
:10216C002A22630000000000000063223E22227736
:10217C00000000000000003E414141413E000000D3
:10218C00000000006C3222222277000000000000C8
:10219C00007E212121213E207000000000003E41E4
:1021AC004040413E00000000000000742A2A2A2A08
:1021BC006B00000000000000772222221E02221C6D
:1021CC00000000001C083E4949493E081C00000064
:1021DC00000077221C1C2277000000000000006623
:1021EC00222222261B010100000000007722221E61
:1021FC000207000000000000006B2A2A2A2A3E0079
:10220C000000000000006B2A2A2A2A3F010100006E
:10221C0000000070505E11111E0000000000000054
:10222C00E242724A4AF20000000000000070203EB8
:10223C0021217E000000000000003E410F01413EC4
:10224C000000000000000066293929296600000002
:10225C00000000001F22221E1233000064D4B03094
:10226C0031323334353637383961626364656667C9
:10227C0068696A6B6C6D6E6F70717273747576775A
:04228C0078797A00E3
:04229000350100080C
:04229400110100082C
:102298000024F400080D00000817000820FF0000C3
:1022A8000001000205002800003A015500B2050CA3
:1022B8000C0033330036010000B7013500BB0119AB
:1022C80000C0012C00C20201FF00C3011200C401BA
:1022D8002000C6010F00D002A4A100E00ED0040D1A
:1022E80011132B3F544C180D0B1F2300E10ED00483
:1022F8000C11132C3F44512F1F1F202300210000D5
:1023080011000205001300002900027803000000F4
:10231800002A0400000000002B0400000000002C2C
:1023280000030000001000020A0300000011000270
:042338007803000026
:040000050800069554
:00000001FF
