:020000040800F2
:10000000005000209106000851060008550600081F
:10001000590600085D06000861060008000000009F
:10002000000000000000000000000000650600085D
:1000300069060008000000006D060008710600084F
:10004000D9060008D9060008D9060008D906000814
:10005000D9060008D9060008D9060008D906000804
:10006000D9060008D9060008D9060008D9060008F4
:10007000D906000881060008D9060008D90600083C
:10008000D9060008D9060008D9060008D9060008D4
:10009000D9060008D9060008D9060008D9060008C4
:1000A000D9060008D9060008D9060008D9060008B4
:1000B000D9060008D9060008D9060008D9060008A4
:1000C000D9060008D9060008D9060008D906000894
:1000D000D9060008D9060008D9060008D906000884
:1000E000D9060008D9060008D9060008000000005B
:1000F0000000000000000000000000000000000000
:0C01000000000000000000005FF808F1A3
:1001100010B5054C237833B9044B13B10448AFF341
:1001200000800123237010BDA40000200000000007
:10013000D816000808B5034B1BB103490348AFF3B9
:10014000008008BD00000000A8000020D8160008AC
:10015000224A08B5136823F0070343F00203136033
:10016000136803F00703022BFAD11D490B6843F40F
:1001700080330B600B689A03FCD54B68184A23F454
:100180007C1343F4E8134B600B6843F080730B60FF
:1001900013689B01FCD55368114923F0F0035360A9
:1001A000536823F4E06343F480635360536823F49B
:1001B00060535360536823F0030343F0020353601A
:1001C0004B6803F00C03082BFAD1064801F0EAF95A
:1001D000BDE80840034801F009BA00BF0020024012
:1001E0000010024000A24A044FF6FF00C44B2DE964
:1001F000F04F9969ADF2047D41F00101996199696F
:10020000C04A01F0010113911399D969BD4C41F025
:100210008051D961DB6903F080531293129BD1683E
:10022000B94B01400B43D360D368B849C3F30223F1
:10023000C3F107001A1D042828BF0420062A88BF1E
:10024000DA1E4FF0FF3303FA00F398BF0022DB43BE
:1002500093401B01DBB284F823304B6823F0E0634A
:100260004B604B6843F000734B60FFF771FFA84B86
:10027000A84A1B68A2FB03239B09013BB3F1807FC3
:1002800009D24FF0E022F02500200721536184F8C5
:1002900023509061116100231C22DFF864B22F9378
:1002A000DBF818309C4843F02003CBF81830DBF81B
:1002B0001830032503F020031893189BDBF818303F
:1002C0002CA943F00403CBF81830DBF818300024D5
:1002D00003F004031993199B426101220123309218
:1002E00041F61C422E95CDE92C2300F087FFDBF868
:1002F00014204FF4005142F00102CBF81420DBF837
:100300001420864802F001021192119A7D4ADFF80A
:100310001092D2684FF0000280F80D23016028226D
:1003200021462CA801F0ACF9CDE92544DBF81820D2
:10033000092342F48052CBF81820DBF8182022A9B8
:1003400002F480521692169ADBF81820724842F096
:100350000402CBF81820DBF81820249502F00402E0
:100360001792179A4AF2A002CDE9222300F046FF25
:100370006C4A4FF48270116B4FF4007E21F480417F
:1003800021F0100141F010011163116B4FF0080CC6
:1003900021F440511163116B0A2321F020011163F4
:1003A000116B264621F040011163116B5E4F41F045
:1003B00080011163116B21F4407141F4807111636C
:1003C000116B21F4406141F4806111630222CDE997
:1003D0002F2400222D902CA95448CDE931ECCDE9F1
:1003E00034232C942E94339400F098FF202221463D
:1003F0002CA8CDE91D44CDE91F44219401F040F91A
:1004000042F20F701121CDE92244CDE92444269413
:10041000DBF81C20464B42F00202CBF81C20DBF834
:100420001C20ADF8740002F0020218461F911492CD
:100430001DA9149A00F0A2FF4FF0804C3C4B6020A5
:100440001A68E04622F080021A60DCF818240121C4
:1004500042F00802CCF818244FF0090C2C902CAA7A
:1004600018466546CDE92FC4CDE92D4400F0C2FF02
:10047000D8F8182444F24001404622F00402C8F89B
:1004800018244FF002082A4B00F584305A6822F0F5
:1004900070025A609A6822F080029A60DBF8183085
:1004A00043F00403CBF81830DBF81830CDE92215FF
:1004B00003F00403159322A9CDE92484159B00F0D1
:1004C0009DFE154B1B4925932793299340F608035E
:1004D000ADF8983040F20443ADF8A03041F210037B
:1004E0001DADADF8A83004A3D3E90023CDE9222344
:1004F00022E000BFAFF30080003001400000024066
:100500000010024000ED00E00003FA050000014089
:1005100000000020D34D62100008014000E100E01F
:1005200000FFFF0000000240C0000020003001403A
:1005300000040040F01600080FC985E80F00CDF850
:100540009080DFF8F0800DF12C0C95E80F004FF44F
:10055000A07B8CE80F00CDF820804FF002084FF010
:10056000F00E354BCDF828800793344BCDE903448A
:100570000693334BDFF8CC80059322AB0993CDE98A
:1005800001B4CDF800E0734672462CA9D8F80000FB
:1005900000F022FA8346C8F8000000F00FFB2A4B57
:1005A00022460093FF232146584602930394274B8B
:1005B000CDF8049000F0B4FD4FF4FA6001F004F8B7
:1005C0002546D7F800A03B684FF00008A3EB0A03CC
:1005D000B3F57A7F14D2310241EA054121435846EE
:1005E00000F020FC3B680135A3EB0A03023604341B
:1005F000B3F57A7FEDB2F6B2E4B208F10108EAD3BE
:100600001AA90A22404601F039F80022FF21DFF83A
:1006100038C0584602911AAB11460392CDF80490A7
:10062000CDF800C000F07CFD4FF47A7000F0CCFFF4
:10063000C7E700BFF5110008ED110008A911000877
:100640008D110008C40000200400002000170008DD
:10065000FEE700BFFEE700BFFEE700BFFEE700BF0A
:10066000FEE700BF704700BF704700BF704700BF84
:10067000024A136801331360704700BFC0000020B6
:100680000221014800F02AB800000240704700BF74
:100690000C480D490D4A002302E0D458C4500433DD
:1006A000C4188C42F9D30A4A0A4C002301E01360B3
:1006B0000432A242FBD3FFF7E9FF00F0E9FFFFF7A6
:1006C00093FD704700000020A4000020A82200082D
:1006D000A4000020C8000020FEE700000122324BE9
:1006E00010B44FEA810C446802FA0CF21B682243F2
:1006F000426033B19A6A904205D0D3F84C36002B51
:10070000F8D110BC7047DA6A9142F6D11A6C22B166
:10071000D268B3F844401442EFD1244A12F801C021
:1007200050F80C2000EB0C0122F0010240F80C20E4
:1007300050F80C20D20703D500BF0A68D407FBD4B9
:10074000D3F83C26D2B95A6A516821F002015160AF
:100750009168080604D500BF5A6A91680906FAD460
:1007600093F8411621B9196C11B1B3F844300B61FB
:10077000136810BC23F0400313607047B2F5803F4C
:100780000BD24A60002250F80C1010BC41F001015D
:10079000C3F83C2640F80C1070474FF6FF74A2F5E2
:1007A0007F42FF3A4C60EEE7C400002010170008BB
:1007B000F8B5456A04462B685B0623D494F84136A5
:1007C0002BB9236C1BB1B4F8442012041A612B68B6
:1007D00023F42C432B602B6843F040032B600B78F1
:1007E000012B4ED0022B6DD093B194F8413623B932
:1007F000236C13B1B4F844201A612B6823F0400332
:100800002B60F8BD00BF636A1B685F06D6D5F9E7A9
:10081000A28F636AA66B48781204326118739A68D3
:10082000960707D400BF9A689007FBD59A6812060E
:1008300003D500BF9A681206FBD48E7801F1030E2F
:10084000002E45D070460EEB060C636A10F8012BA3
:10085000A76BA18F39611A739A68970707D400BFF5
:100860009A689107FBD59A68120603D500BF9A686B
:100870001206FBD46045E8D10EEB06010B78012B84
:10088000B0D14E7801F1020E16B370460EEB060C95
:10089000636A10F8012BA76BA18F39611A739A68EC
:1008A000970707D400BF9A689107FBD59A6812068C
:1008B00003D500BF9A681206FBD46045E8D10EEB61
:1008C0000601DBE748788E1C00F07EFE314686E7A5
:1008D000714684E738B504461D464389D4F818C0EC
:1008E0001944838988B21A4493B219460246E047F4
:1008F00001462046FFF75CFF364994F84800C5F3EF
:10090000C40201EA15216B090A4303F4FC631A438C
:10091000012892B201D152BA92B2636A19684D06A7
:100920003FD494F8411629B9256C1DB1B4F8441090
:100930000904296194F8421611B9A16BA58F0D61C4
:100940001968022821F42C41196032D01868D1B2FC
:1009500040F04000186019739968890703D400BFFC
:1009600099688807FBD5C2F307221A739A68910722
:1009700007D400BF9A689207FBD59A68100603D582
:1009800000BF9A681006FBD494F8412622B9226C65
:1009900012B1B4F8441011611A6822F040021A60D2
:1009A00038BD00BF616A09684906FAD494F8480066
:1009B000B7E7196841F400611960196841F0400116
:1009C0001960DA609A689507DBD400BF9A689507CA
:1009D000FBD5D6E700F8FFFF2DE9F04F83B00C46BA
:1009E000CDE90023BDF83090BDF83480BDF9386002
:1009F000BDF93C709DF840B09DF858A0002900F06A
:100A0000B7804FF4CA6200210546204600F038FE48
:100A1000DDF854C084F848A004F1240EBCE80F00AF
:100A2000AEE80F00BCE80F00AEE80F00DCF80030C5
:100A3000CEF80030A36A002B35D0E26A5E49895CAB
:100A40005A58581822F001025A505A58D20705D560
:100A500000BF0268D207FBD494F848A0BAF1010F96
:100A60000BD0BAF1020F0ED15A5822F470625A50CC
:100A70005A5842F4A0625A5005E05A5822F4706263
:100A80005A505A585A505A5822F00C025A505A5832
:100A900042F002025A505A5822F040025A505A5814
:100AA00042F080025A50019A009913468A4238BF98
:100AB0000B468A4228BF0A46BBF1000F43D14A4584
:100AC0006681A781A280E380A4F80090A4F8028048
:100AD00052D8984550D3119B002B4DD0129B002B20
:100AE0004AD00027119B139A6361129BE261149A0A
:100AF000A36104F14C0617AB04F1600C226284F888
:100B000008B00FCB86E80F00C4F85CC084F84076CC
:100B1000C4F84C76C4F8487655B3D5F84C3653B182
:100B200001221D46D3F84C36511C1046CAB2002B88
:100B3000F7D184F840062046C4F84856C5F84C461C
:100B400003B0BDE8F08FBBF1020F1FD0BBF1010F66
:100B500025D0BBF1030F0FD194464846A8EB0701FF
:100B6000C91A37461A46C146634680460EB2A6E702
:100B7000204603B0BDE8F08F4FF4CA620021204642
:100B800000F07EFD002003B0BDE8F08FA9EB060663
:100B9000A8EB0707B61AFF1A36B23FB28FE7CC466A
:100BA0001046A9EB0601891A3E461A46C14603467D
:100BB000E0460FB283E700BF10170008036B10B5C3
:100BC00004465BB1828E192012041A6100F0FCFC0D
:100BD000236BA28E19201A6100F0F6FC6369207A5B
:100BE000984701462046FFF7E3FD94F85A10E26C5F
:100BF00064290B4628BF642384F85A3002B3D16AB3
:100C0000174801FB03F3A0FB0303216D5B09B1F55A
:100C1000807F22D00FD801291AD0102908BF9363F2
:100C20001368DB0706D4136A19431162136843F093
:100C30000103136010BDB1F5805FF1D11364EFE7DC
:100C4000636D002BF6D0B4F8582019B11A6110BDAD
:100C50005363E5E712041A61F9E7D363E0E700BFE5
:100C60001F85EB51F8B599428E469C460446BDF867
:100C70001870079D01D9E6468C46BA4202D9134640
:100C80003A461F46A18871457FD9E08890427CD9B9
:100C900061459CBF01F1FF311FFA81FCB8429CBF46
:100CA00000F1FF3087B2A1896089BE1A7B18114418
:100CB0000CEB00027044ACEB0E0CA7699BB289B23E
:100CC00092B2013680B20CFB0666B8470146204658
:100CD000FFF76EFD94F841762FB9226C1AB1B4F883
:100CE00044301B04136194F8423613B9A36BA28FEE
:100CF0001A614A4BC5F3C40003EA152318436D0972
:100D000094F8483005F4FC652843012B80B261D08B
:100D1000626AA4F844061168022B21F42C41116088
:100D2000136833D143F4006313601368A56A43F07A
:100D300040031360002D66D00123E16A68688F00CC
:100D4000BB4003436B60364B0C32595C52F8083C95
:100D5000B6F5803F43F0020342F8083C05EB01037F
:100D60009A6004F24462DA606A5822F040026A50E3
:100D70006A5822F080026A503ED200215E601A68F2
:100D8000C4F83C1642F001021A60F8BDA56A43F0AF
:100D900040031360002DCFD1C5B2711E000A5EB1B1
:100DA000157393689F07FCD5107393689E07FCD555
:100DB0000139F5D294F8417693681B06FCD427B923
:100DC000236C13B1B4F844101961136823F0400385
:100DD0001360F8BDD4E90925136840BA23F42C4305
:100DE000A4F844061360136880B243F04003136014
:100DF000002DD1D076009FE74FF6FF72A6F57F4118
:100E0000FF395A60BBE7711E002ED5D0D0609368C1
:100E10009B07FCD50139F9D2CEE700BF00F8FFFFF0
:100E200010170008002210B5C4888388013C82B0E6
:100E3000A4B2013B0191009411469BB2FFF712FF4F
:100E400002B010BD2DE9F04F1D46B44C87B0DDE96E
:100E5000109304EA1324C3F3C40848EA04080646BE
:100E60005C0990F8480004F4FC6448EA040801288E
:100E700093460391129A29469DF84CC0D9F8044034
:100E80001FFA88F803D198FA98F81FFA88F8A34D4A
:100E9000C2F3C40705EA122552092F4302F4FC628B
:100EA00017430128BFB201D17FBABFB299F8082019
:100EB0008A4204D899F80900884280F0058100220E
:100EC00099F80000411EC9100291013104290191D5
:100ED00000F3AA80012501FB02F299F8011001FB41
:100EE000024A019A746AD200013A9540BCF1000F9F
:100EF00012D0002900F098804FF0000811930346AB
:100F0000304646460299032900F29380DFE811F04B
:100F1000C900D900CC008F00B289DDF80CE00BF1DC
:100F2000FF33B6F80AC013445A440B4491B20EF191
:100F3000FF32624402440EEB0C0092B2D6F818C0A5
:100F40009BB280B2E04701463046FFF731FC326C7D
:100F50001AB1B6F844301B041361B36BB18F196139
:100F6000236823F040032360236823F42C43236089
:100F700096F84830022B00F0AA80236843F0400323
:100F8000236099F80130002B40D0002099F800C070
:100F9000DDF804E0BEF1010F00F0AF80BEF1020FFA
:100FA00000F0AE80BEF1030F00F0AD80DAF8001063
:100FB000F244BCF1000F25D0002201FA02F32B42CB
:100FC00014BFC446BC46A3689B07FCD596F84830BE
:100FD000022B40F08180C4F80CC099F800C00132A7
:100FE00094450DDD01FA02F32B4214BFC346BB4604
:100FF000A3689B07FCD501329445C4F80CB0F1DC22
:1010000099F8013001308342C4DC326CA36899073F
:10101000FCD5A3681B06FCD4236823F0400323609F
:1010200012B1B6F84430136107B0BDE8F08FDAF8BA
:101030000080019A9244002BF6D00027039C0FFAFF
:101040008BF203E00134BB42A4B220DD08FA07F1C1
:10105000294207F10107F5D0B0F804C021B28C4550
:1010600044EA0B0EEEDDB0F806C09445EADD1EF44E
:10107000004FE7D1119BCDE90402FFF72BFCDDE91E
:10108000040299F800300134BB42A4B2DEDC99F8C6
:10109000012001369642C7DA0BF1010B1FFA8BFBD8
:1010A00030E79AF80080C4E79AF802809AF80120A5
:1010B0004FEA084848EA02289AF8002048EA02085D
:1010C000B7E7BAF80080B4E78A1AD2B2F8E6236824
:1010D00043F40063236050E75FFA8CF32373CCF38F
:1010E000072CA3689B07FCD584F80CC099F800C0B6
:1010F000013294453FF761AF82E79AF8001057E755
:10110000BAF8001054E79AF802109AF8012009047E
:1011100041EA02219AF80020114349E700F8FFFF55
:101120002DE9F04F1F461B7885B08346DDE90E6838
:101130000C461546DDF840909DF844A0FBB131788F
:10114000BBF804202144914209DD7278BBF80610F7
:101150001544ADB22A448A424FF000040FDC214608
:101160002A465846CDE9029ACDE90068FFF76AFEA3
:10117000317817F8013F0C44A4B2002BE0D1ABF852
:101180000E40ABF8105005B0BDE8F08F0138C0B28A
:1011900002288EBF0023024B1B5C0248C3757047B8
:1011A000782200081000002030B54FF0000E0446F1
:1011B000F446250A65F3070E64F30F2E0C0A64F358
:1011C000070C61F30F2C110A61F3174E62F31F6EC7
:1011D0001A0A054862F3174C63F31F6CC0F803E06A
:1011E000C0F80AC030BD00BF800000200048704732
:1011F00094000020004870479C0000200B68C3F357
:101200000F2C9CFAACF2B2FA82F23CFA02F300F034
:1012100083802DE9F04F4FF0010E0F2403260425A3
:10122000E24666E040F201139340D1F80480B8F141
:10123000080F0ED1C7684FEA132C9CFAACF9B9FA23
:1012400089F927EA0C0C0F6907FA09F74CEA070736
:10125000C7604FEA136C93FAA3F7B7FA87F793FACC
:10126000A3F9B9FA89F950F80CB0BF0004FA07F7EE
:101270004FEA890908FA09F82BEA070747EA08073D
:1012800040F80C70D1F8048028F00808B8F1010F7C
:101290002BD193FAA3F9B9FA89F993FAA3F8B8FA1A
:1012A00088F84FEA890906FA09F927EA09098F68D7
:1012B0004FEA880807FA08F749EA070740F80C7070
:1012C00093FAA3F8B8FA88F893FAA3F3B3FA83F37E
:1012D0004FEA880805FA08F827EA0808CF689B0053
:1012E0009F4048EA070740F80C7001323AFA02F3CF
:1012F0000FD00EFA02F313EA0A0FF6D0072A91D99B
:101300004FF00117A2F1080307FA03F343F08063DB
:101310008BE70020BDE8F08F002070470246006890
:1013200010F0400024D1136830B423F47F4CD1E98D
:1013300000352B438D684C692B43CD682CF0BF0CD6
:101340002B430D692B438D6923432B43CD692B43DD
:101350000D6A2B4343EA0C0313605368B5F5005F35
:1013600023F0040343EA1443536003D030BC7047B6
:10137000012070478B8C30BC136170471C4A30B41D
:101380009042036824D0B0F1804F13D0A2F594327C
:1013900090420FD002F5806290420BD08C680A8890
:1013A0000360C4628262436930BC43F0010343615D
:1013B000002070474A6823F07003134323F44073FE
:1013C0000A88D1E902452B430360C4628262EAE7DE
:1013D0004C6823F07003CA68234323F4407313431B
:1013E00003608A680B88C26283620B690363DAE771
:1013F000002C0140B1F5807F034630B46CD025D875
:1014000001294BD0102946D1016A156921F010013C
:101410000162016A406821F020019C6941EA0511DE
:10142000156824F4E64444EA0524556821F01001C7
:1014300041EA05115A4DAB4200F09780D2685860DE
:101440009C61002030BC9A6319627047B1F5805FDF
:1014500021D1016A156921F480510162016A406855
:1014600021F40051DC6941EA0531156824F4E644B1
:1014700044EA0524556821F4805141EA0531484D7C
:10148000AB4200F08780D2685860DC61002030BC3D
:101490001A6419627047012030BC7047016A1569EF
:1014A00021F001010162016A406821F002019C699A
:1014B0002943156824F073042C43556821F0010179
:1014C0002943374DAB423CD0D26858609C61002024
:1014D00030BC5A6319627047016A156921F4807142
:1014E0000162016A406821F40071DC6941EA05216A
:1014F000156824F073042C43556821F4807141EA87
:101500000521274DAB4207D0D2685860DC6100202E
:1015100030BCDA6319627047556921F4006141EA11
:101520008521956920F4805040EA0510956821F4E2
:10153000806141EA8521D56920F4005040EA4510D8
:10154000E2E7556921F0080141EA8501956920F437
:1015500080702843956821F0040141EA8501D5692E
:1015600020F4007040EA4500AEE7556921F08001A3
:1015700041EA8511956920F4806040EA850095680C
:1015800021F0400141EA8511D56920F4006040EA6C
:10159000C50053E7956920F4804040EA851072E762
:1015A000002C014030B44FF0E02200250524054B0B
:1015B000A3FB00139B09013B53619561146130BC8F
:1015C000704700BFD34D62104FF0E023421C4FF034
:1015D000E0221B6982B00193019B18BF013013699F
:1015E000DB03FCD50138FAD102B07047014B18601B
:1015F000704700BF00000020F0B58BB005460B46D9
:101600006E461D4C04F1200C374620686168083492
:1016100003C764453E46F7D1217920683971911E90
:10162000222938604FF0000104D919700B46184682
:101630000BB0F0BD581E8446B5FBF2F702FB1756FF
:1016400028366E4416F8286C0C460CF8016F2E46AE
:10165000B2423D4601F10101EED900225A54191956
:10166000A51AAA42E3DA10F8015F0E78013206707B
:1016700001F80159F4E700BF7B220008FFF7BCBF67
:1016800003460244934200D1704703F8011BF9E777
:1016900070B500260C4D0D4C641BA410A64209D158
:1016A00000F01AF800260A4D0A4C641BA410A6424A
:1016B00005D170BD55F8043B98470136EEE755F863
:1016C000043B98470136F2E7A0220008A022000858
:1016D000A0220008A4220008F8B500BFF8BC08BC8E
:1016E0009E467047F8B500BFF8BC08BC9E467047E0
:1016F0000004004001000000000000000000500055
:1017000048656C6C6F2C20776F726C642100000050
:10171000081C3044586C80000000000000000000ED
:101720000000000000000008080808080808000879
:10173000000000001414140000000000000000006D
:10174000000A0A3F1414147E282800000000081C18
:1017500022201C02221C0800000000205122040844
:1017600010224502000000001820201030494A4491
:101770003B00000000080808000000000000000016
:1017800000000408081010101010080804000010D1
:101790000808040404040408081000000000361CB3
:1017A0007F1C3600000000000000000808087F08C9
:1017B0000808000000000000000000000000081001
:1017C00000000000000000007F000000000000009A
:1017D00000000000000000000800000000000102FE
:1017E000040810204000000000001C2222222222B7
:1017F00022221C0000000008380808080808083EDB
:10180000000000001C220202040810203E0000001C
:10181000001C2202020C0202221C00000000040C28
:101820000C1414243E040E000000003E2020203C36
:101830000202221C000000000C1020203C22222268
:101840001C000000003E22020404080810100000E2
:1018500000001C2222221C2222221C000000001C4C
:101860002222221E020204180000000000000008CC
:101870000000000008000000000000000800000058
:1018800000081000000000000408102010080400E8
:101890000000000000003E003E00000000000000CC
:1018A000000010080402040810000000001C2202BE
:1018B000020408080008000000001E214D5555557F
:1018C0004E201C000000001808081414223E227745
:1018D000000000007E2121213E2121217E00000008
:1018E000001E214040404040211E000000007C229C
:1018F0002121212121227C000000007F2120243C85
:101900002420217F000000007F2120243C2420206F
:1019100078000000001E214040404741211E000089
:101920000000772222223E22222277000000003E81
:10193000080808080808083E000000001E04040407
:10194000040444443800000000732224242838246E
:101950002273000000007C101010101010117F0086
:10196000000000632236362A2A2222770000000077
:10197000672232322A26262272000000001C2241F1
:1019800041414141221C000000007E2121213E20D6
:10199000202078000000001C224141414141221CCE
:1019A0001B0000007E2121213E2424227300000020
:1019B000003E4140403E0101413E000000007F49A1
:1019C0000808080808081C000000007722222222CC
:1019D0002222221C00000000772222221414140864
:1019E0000800000000772222222A2A2A141400006C
:1019F00000007722141408141422770000000077E6
:101A0000222214140808081C000000007F4204046D
:101A1000081010217F000000001C10101010101082
:101A20001010101C000000402010080402010000EB
:101A3000000000001C04040404040404041C000846
:101A40001422000000000000000000000000000060
:101A500000000000000000FF00001008000000006F
:101A6000000000000000000000003C023E42423D39
:101A7000000000006020203E212121217E00000086
:101A8000000000003E414040413E000000000602D0
:101A9000023E424242423F000000000000003E4140
:101AA0007F40413E000000000C10103C1010101050
:101AB0003C000000000000003F4242423E02023C67
:101AC00000006020202C3222222277000000000833
:101AD000000038080808083E000000000400003C30
:101AE000040404040404380000602020262428385C
:101AF00024630000000018080808080808083E00D1
:101B0000000000000000742A2A2A2A6B000000004E
:101B10000000006C3222222277000000000000004A
:101B20003E414141413E000000000000007E212175
:101B300021213E207000000000003F424242423E10
:101B40000207000000000076191010107C00000051
:101B5000000000003E413806413E00000000001039
:101B6000103C101010120C00000000000000662253
:101B70002222261B000000000000007722221414FD
:101B8000080000000000000077222A2A1414000038
:101B9000000000000077221C1C22770000000000DB
:101BA0000000772222141408083000000000007E94
:101BB000440810227E0000000006080808083008CB
:101BC000080808060008080808080808080808089F
:101BD0000800003008080808060808080830000057
:101BE00000314946000000000000000000001C1CFD
:101BF0001C1C1C1C1C1C1C000000FE9210101E1142
:101C0000111516000004083F1110101010101038A4
:101C100000000000000000000000000008100000AC
:101C20000408003E121010101038000000000000E0
:101C30000000000000002448000000000000000038
:101C4000000000540000000010107C101010101054
:101C5000100000000010107C1010107C101000000C
:101C60000000001C1C1C1C1C1C1C1C1C0000002157
:101C7000522408102052AD1200000000F8484848D5
:101C80004E4949C9CE0000000000000000040810C1
:101C9000080400000000EC4848487E494949EE002D
:101CA0000004087322242438242422730000000036
:101CB000FE9210101E11111139000000007722222F
:101CC00022222222227F08080000207C202C32229F
:101CD000222272020600001008000000000000002E
:101CE00000000000081000000000000000000000DC
:101CF0000048240000000000000000000000122442
:101D00000000000000000000000000000000183C7F
:101D1000180000000000000000000000700000003B
:101D2000000000000000000000FC000000000000B7
:101D3000000000000000000000000000000000FBA8
:101D400055510000000000000000000000000018D5
:101D5000282E4949CE000000000000000020100895
:101D6000102000000000000000CC487E4949EE0031
:101D700000000004080066243824246300000000EA
:101D8000207C202C3222222277000000000000005C
:101D900066222222223E0808000000000000000007
:101DA000000000000036087F222222221E02221C90
:101DB000000000000036087F2222221E02221C00A2
:101DC000001E040404040444443800000000413EA2
:101DD0002222223E410000000001033F101010109B
:101DE0001010103800000000080808080800080853
:101DF00008080800001E22504824120A44780000F7
:101E000022007F2120243C2420217F000000001C90
:101E1000224D51514D221C00000000001E21404463
:101E20007C4440211E0000000000000000112244FC
:101E30002211000000000000003E0200000000002F
:101E400000000000000000007F0000000000000013
:101E50001C2259555955221C00000022003E08083A
:101E600008080808083E00000000081408000000E8
:101E7000000000000000000808087F080808007F34
:101E8000000000003E080808080808083E0000009E
:101E90000008000038080808083E000000000002A2
:101EA0001E10101010103800000000000000222248
:101EB0002222223C204000003F7A7A7A3A0A0A0A1B
:101EC0001B000000000000000000080000000000EF
:101ED00000002200003E417F40413E00000000C65D
:101EE000446777544F4C44C6000000000000003E99
:101EF000417840413E0000000000000000442211F3
:101F00002244000000000400003C04040404040413
:101F10003800003E4140403E0101413E00000000CB
:101F20000000003E413806413E0000000024000051
:101F300038080808083E0000000002060A0A121EBF
:101F4000222277000000007F2120203E2121217ED7
:101F5000000000007E2121213E2121217E00000081
:101F6000003F1110101010101038000000007F22E8
:101F70002222222222227F414100007F2120243C74
:101F80002420217F00000000492A2A2A1C2A2A2A0C
:101F900049000000003E4101011E0101413E0000D8
:101FA0000000632226262A323222770000000C6BC2
:101FB0003226262A3232227700000000732224249F
:101FC0003824242273000000003F12121212121251
:101FD000527700000000632236362A2A2222770038
:101FE000000000772222223E2222227700000000F9
:101FF0001C224141414141221C000000007F22225D
:10200000222222222277000000007E2121213E2070
:10201000202078000000001E214040404040211E4A
:10202000000000007F490808080808081C0000009C
:102030000077222222221E02221C000000001C081F
:102040003E4949493E081C0000000077221414084C
:10205000141422770000000077222222222222225A
:102060003F0101000077222222221E020207000007
:1020700000006B2A2A2A2A2A2A2A3E000000006B26
:102080002A2A2A2A2A2A2A3F010100007850501EB3
:10209000111111113E00000000E74242724A4A4A03
:1020A0004AF7000000007020203E212121217E00FF
:1020B0000000003C4201111F1101423C00000000E1
:1020C000662929293929292966000000003F424252
:1020D000423E1212226F000000000000003C023E4F
:1020E00042423D00000000007F40203E4141413E11
:1020F00000000000003844447C4242423C000000A2
:10210000000000003C420C30423C00000000000097
:10211000003F4242423E02221C00000000003E41BD
:102120007F40413E00000000000000492A1C2A2A8E
:1021300049000000000000003E410E02413E000048
:10214000000000000066222222261B00000000047E
:10215000080066222222261B000000000000006604
:10216000243824246300000000000000070A0A123B
:102170001263000000000000002236362A226300AD
:1021800000000000000063223E22227700000000D1
:102190000000003E414141413E00000000000000BF
:1021A0006C3222222277000000000000007E2121F4
:1021B00021213E207000000000003E414040413E91
:1021C00000000000000000742A2A2A2A6B00000088
:1021D00000000000772222221E02221C00000000C4
:1021E0001C083E4949493E081C00000000007722B7
:1021F0001C1C22770000000000000066222222261C
:102200001B010100000000007722221E02070000CF
:1022100000000000006B2A2A2A2A3E00000000006D
:1022200000006B2A2A2A2A3F0101000000000070EA
:10223000505E11111E00000000000000E242724AD0
:102240004AF20000000000000070203E21217E00C4
:102250000000000000003E410F01413E0000000070
:1022600000000066293929296600000000000000EE
:102270001F22221E1233000064D4B03031323334B6
:1022800035363738396162636465666768696A6BD9
:102290006C6D6E6F707172737475767778797A0081
:0422A00035010008FC
:0422A400110100081C
:1022A8000024F400080D00001817000820FF0000A3
:1022B8000001000205002800003A015500B2050C93
:1022C8000C0033330036010000B7013500BB01199B
:1022D80000C0012C00C20201FF00C3011200C401AA
:1022E8002000C6010F00D002A4A100E00ED0040D0A
:1022F80011132B3F544C180D0B1F2300E10ED00473
:102308000C11132C3F44512F1F1F202300210000C4
:1023180011000205001300002900027803000000E4
:10232800002A0400000000002B0400000000002C1C
:1023380000030000001000020A0300000011000260
:042348007803000016
:040000050800069158
:00000001FF
